:020000040800F2
:1000000000800120F91E0008E1030008E303000856
:10001000E5030008E7030008E9030008000000000A
:10002000000000000000000000000000EB030008DA
:10003000ED03000800000000EF030008F1030008D2
:10004000491F0008491F0008491F0008491F0008F0
:10005000491F0008491F0008491F0008491F0008E0
:10006000491F0008491F0008491F0008491F0008D0
:10007000491F0008491F0008491F0008491F0008C0
:10008000491F0008491F0008491F0008491F0008B0
:10009000491F0008491F0008491F0008491F0008A0
:1000A000491F0008491F0008491F0008491F000890
:1000B000491F0008491F0008491F0008491F000880
:1000C000491F0008491F0008491F0008491F000870
:1000D000491F0008491F0008491F0008491F000860
:1000E000491F0008491F0008491F0008491F000850
:1000F000491F0008491F0008491F0008491F000840
:10010000491F0008491F0008491F0008491F00082F
:10011000491F0008491F0008491F0008491F00081F
:10012000491F0008491F0008491F0008491F00080F
:10013000491F0008491F0008491F0008491F0008FF
:10014000491F0008491F0008491F0008491F0008EF
:10015000491F0008491F0008491F0008491F0008DF
:10016000491F0008491F0008491F0008491F0008CF
:10017000491F0008491F0008491F0008000000002F
:08018000491F0008491F000897
:1001880053B94AB9002908BF00281CBF4FF0FF31F6
:100198004FF0FF3000F00CB8ADF1080C6DE904CE5B
:1001A80001F0FCFEDDF804E0DDE9022304B070474D
:1001B800704700BF10B5054C237833B9044B13B111
:1001C8000448AFF300800123237010BD1000002005
:1001D800000000006822000808B5034B1BB1034962
:1001E8000348AFF3008008BD0000000014000020A1
:1001F8006822000830B5B9B02422002128A801F0EF
:10020800C5FE0024229423942494259426948822BD
:100218002146684601F0BAFE022527954FF48073FF
:100228002A9310232B9331953295012333930A2374
:100238003493072335933695379527A800F01AFD90
:100248000F23229303232393249425942694042193
:1002580022A801F027F800950F94684601F058FA93
:100268004FF4007001F07CFD39B030BD08B500F0E6
:1002780023FCFFF7BFFF00F00DF800F05BF820212A
:100288004FF0904001F05DFD642000F03DFCF6E782
:100298007047000010B58AB00024059406940794AE
:1002A80008940994204BDA6C42F00402DA64DA6CA0
:1002B80002F004020192019ADA6C42F08002DA64D8
:1002C800DA6C02F080020292029ADA6C42F00102C1
:1002D800DA64DA6C02F001020392039ADA6C42F0F3
:1002E8000202DA64DB6C03F002030493049B2246E7
:1002F80020214FF0904001F01FFD4FF4005305936B
:100308000A4B0693079405A9094801F02FFC2023FE
:100318000593012306930794089405A94FF090408C
:1003280001F024FC0AB010BD0010024000002110AA
:100338000008004808B50B480B4B03604FF4E13345
:10034800436000238360C36003610C2242618361C0
:10035800C3610362436200F055FB00B908BDFFF7B3
:1003680097FFFBE72C0000200044004000B589B04F
:100378000023039304930593069307930268154B90
:100388009A4202D009B05DF804FB03F5E6339A6D92
:1003980042F400329A659A6D02F400320192019A91
:1003A800DA6C42F00102DA64DB6C03F001030293B9
:1003B800029B0C2303930223049300230593032336
:1003C80006930723079303A94FF0904001F0CEFB53
:1003D800D8E700BF004400407047FEE7FEE7FEE7AD
:1003E800FEE770477047704708B500F07BFB08BD13
:1003F80082B00A4B1A6E42F001021A661A6E02F0B7
:1004080001020092009A9A6D42F080529A659B6DA3
:1004180003F080530193019B02B070470010024023
:10042800F8B50446016883680269134342691343B7
:10043800C269134308689E4A024013430B6022684E
:10044800536823F44053E1680B435360A169226861
:10045800984B9A4201D0236A1943936823F4306376
:100468000B4393602368944A934210D0934A934273
:1004780021D0934A934237D0924A93425CD0924A11
:1004880093426BD08B4A93427DD010253AE002F517
:100498005842D2F8882002F00302032A09D8DFE87C
:1004A80002F00204870601252CE004252AE008252D
:1004B80028E0102526E002F5E632D2F8882002F07E
:1004C8000C020C2A0ED8DFE802F0070D0D0D090DFD
:1004D8000D0D750D0D0D0B00002513E0042511E021
:1004E80008250FE010250DE002F5E432D2F8882047
:1004F80002F03002202A5FD01AD8002A5ED0102AD3
:100508005ED104256B4A934276D0E369B3F5004F78
:1005180000F0F080082D00F27881DFE815F039014D
:100528004E015801760163017601760176016D016D
:10053800302A47D10825E5E702F5E232D2F88820CB
:1005480002F0C002802A3FD004D8FAB3402A3FD133
:100558000425D7E7C02A3DD10825D3E702F5E032C4
:10056800D2F8882002F44072B2F5007F34D005D862
:10057800A2B3B2F5807F33D10425C3E7B2F5407F3B
:1005880030D10825BEE702F5C832D2F8882002F437
:100598004062B2F5006F27D005D83AB3B2F5806F44
:1005A80026D10425AEE7B2F5406F23D10825A9E787
:1005B8000225A7E70225A5E70225A3E70025A1E76D
:1005C80010259FE710259DE702259BE7002599E761
:1005D800102597E7102595E7022593E7002591E771
:1005E80010258FE710258DE702258BE7002589E781
:1005F800102587E7102585E7082D00F20981DFE837
:1006080015F00C0007012700070124000701070166
:10061800070109004FF4004004E000F0F7FE00284D
:1006280000F0F880626802EB4203834200F2F48033
:10063800B0EB023F00F2F280082D58D8DFE805F051
:100648000A571F572A5757574C0000F0B9FAE6E7E0
:100658001E48E7E700F0DAFE0023070E060262688C
:100668005008301847F10001FFF78AFDA0F54072E5
:10067800174B9A4200F2D4802368D86098E0560855
:1006880000252B4613480021801941F10001FFF78E
:1006980077FDEBE700F094FA0025070E0602626882
:1006A80050082B46301847F10001FFF769FDDDE7D8
:1006B800F369FFEF0080004000380140004400402B
:1006C80000480040004C0040005000400024F40066
:1006D800FFFC0F00000024F4500800252B4610F5FD
:1006E80000002CBF01210021FFF74AFDBEE70125CC
:1006F8000020BBE7082D48D8DFE805F0051D28478E
:10070800334747473E0000F081FE6268530803EB19
:100718004003B3FBF2F39BB2A3F110014FF6EF7263
:1007280091427FD89AB222F00F02C3F342031343D7
:100738002268D3603CE000F07BFE6268530803EB5C
:100748004003B3FBF2F39BB20025E5E76268530868
:1007580003F1F47303F59043B3FBF2F39BB2002566
:10076800DAE700F02DFA6268530803EB4003B3FBA5
:10077800F2F39BB20025CFE76268530803F5803394
:10078800B3FBF2F39BB20025C6E701250023C3E7BC
:1007980000F03CFE626800EB5203B3FBF2F39BB23D
:1007A800A3F110014FF6EF7291423DD82268D36051
:1007B8000023236663662846F8BD00F039FE6268A8
:1007C80000EB5203B3FBF2F39BB20025E8E7626843
:1007D800530803F5740303F51053B3FBF2F39BB20C
:1007E8000025DDE700F0ECF9626800EB5203B3FB8B
:1007F800F2F39BB20025D3E76268530803F5004380
:10080800B3FBF2F39BB20025CAE701250023C7E733
:100818000125CDE70025CBE70125C9E70125C7E775
:100828000125C5E70125C3E70125C1E7436A13F0A0
:10083800010F06D00268536823F40033816A0B4322
:100848005360436A13F0020F06D00268536823F41A
:100858008033C16A0B435360436A13F0040F06D018
:100868000268536823F48023016B0B435360436A87
:1008780013F0080F06D00268536823F40043416B55
:100888000B435360436A13F0100F06D00268936855
:1008980023F48053816B0B439360436A13F0200F5A
:1008A80006D00268936823F40053C16B0B4393602E
:1008B800436A13F0400F0AD00268536823F4801388
:1008C800016C0B435360036CB3F5801F0BD0436A74
:1008D80013F0800F06D00268536823F40023816C5C
:1008E8000B43536070470268536823F4C003416C9C
:1008F8000B435360EBE72DE9F84305460F461646D0
:100908009946DDF820802C68E46937EA04030CBFB7
:1009180001240024B4423CD1B8F1FF3FF3D000F0E9
:10092800EDF8A0EB0900404521D8B8F1000F1ED022
:100938002B681A6812F0040FE5D0DA6912F4006F18
:10094800E1D04FF400621A622A68136823F4D07366
:1009580013602A68936823F00103936020236B6770
:10096800AB67EB67002385F87030032012E02A6834
:10097800136823F4D07313602A68936823F0010383
:10098800936020236B67AB67002385F870300320E2
:1009980000E00020BDE8F88330B583B004460023AA
:1009A800C36700F0ABF8054623681B6813F0080F0F
:1009B8000CD123681B6813F0040F15D1202363673B
:1009C800A367002084F8700003B030BD6FF07E4349
:1009D8000093034600224FF400112046FFF78BFFD7
:1009E8000028E6D00320EFE76FF07E4300932B4604
:1009F80000224FF480012046FFF77DFF0028DDD05C
:100A08000320E1E768B310B50446436F03B324231A
:100A180063672268136823F0010313602046FFF719
:100A2800FFFC012813D0636ABBB92268536823F41A
:100A3800904353602268936823F02A0393602268E6
:100A4800136843F0010313602046FFF7A5FF10BDAC
:100A580080F87030FFF78AFCD9E72046FFF7E6FEFA
:100A6800E3E7012070470000104B1B680BB9012019
:100A7800704710B504464FF47A70B0FBF3F30C4A94
:100A88001068B0FBF3F001F0F9F968B90F2C01D93F
:100A980001200AE0002221464FF0FF3001F0BAF9A8
:100AA800044B1C60002000E0012010BD0000002065
:100AB800080000200400002010B5094A136843F418
:100AC80080731360032001F093F90020FFF7CCFF37
:100AD80010B10124204610BD0446FFF789FCF9E750
:100AE80000200240034A1368034909680B44136055
:100AF800704700BFAC00002000000020014B1868C0
:100B0800704700BFAC00002038B50446FFF7F6FF79
:100B18000546B4F1FF3F02D0044B1B681C44FFF7A5
:100B2800EDFF401BA042FAD338BD00BF00000020F3
:100B380030B583B00446204B9B6D13F0805F0BD01B
:100B480001F006F9B0F5007F17D0802C1FD82DD002
:100B5800702C2DD000211BE0174DAB6D43F0805356
:100B6800AB65AB6D03F080530193019B01F0F0F886
:100B7800AB6D23F08053AB65E4E7802C03D9A02C40
:100B880003D9022104E0002102E0012100E0032151
:100B98000A4A136823F007030B431360136803F032
:100BA80007038B4206D1002003B030BD0221EFE7D6
:100BB8000121EDE70120F7E7001002400020024084
:100BC800284A9368D26802F0030213F00C030AD093
:100BD8000C2B06D0042B1FD0082B20D00020024657
:100BE80010E0012AF6D11F4A126812F0080F0CD142
:100BF8001C4AD2F89420C2F303221B4951F8222040
:100C080043B100200C2B0DD07047164A1268C2F36E
:100C18000312F2E71046F5E714480022F2E71448F9
:100C28000022EFE70F4BDB6803F00303022B16D01B
:100C3800032B00D10E4A0B4BD868C0F302100130C9
:100C4800D968C1F3062102FB01F2B2FBF0F2D868C1
:100C5800C0F3416001304000B2FBF0F0D4E7034A32
:100C6800E9E700BF00100240982200080024F400C1
:100C780000127A00002800F0FF82F0B583B0044625
:100C8800AE4B9D6805F00C05DE6806F003060368A8
:100C980013F0100F5AD0E5B10C2D18D0A369002B12
:100CA80000F0BB80A54A136843F001031360FFF707
:100CB80025FF0746A14B1B6813F0020F40F09A80EE
:100CC800FFF71CFFC01B0228F4D90320DFE2012E26
:100CD800E4D19A4B1B6813F0020F03D0A369002BD1
:100CE80000F0CC82206A954B1B6813F0080F5BD08C
:100CF800924B1B6803F0F00398425CD88F4B1A683C
:100D080042F008021A601A6822F0F002216A0A43C7
:100D18001A605A6822F47F42E16942EA01225A6065
:100D2800002D60D0FFF74CFF844B9B68C3F303137F
:100D3800834AD35C03F01F03D840824B1860824B70
:100D48001868FFF791FE002840F0A182236813F08D
:100D5800010F00F08180082D75D00C2D71D06368CB
:100D6800B3F5803F00F09780B3F5A02F00F099808D
:100D7800724B1A6822F480321A601A6822F48022B0
:100D88001A606368002B00F09980FFF7B7FE0746EA
:100D98006A4B1B6813F4003F5ED1FFF7AFFEC01B20
:100DA8006428F5D9032072E2644BD3F894301B0908
:100DB80003F0F003A0E7FFF7BBFE002840F06082D5
:100DC8005E4B1A6842F008021A601A6822F0F002B4
:100DD800216A0A431A605A6822F47F42E16942EAAA
:100DE80001225A609EE7206AFFF7A2FE002899D0E8
:100DF80001204CE2514B1A6842F008021A601A6846
:100E080022F0F002216A0A431A605A6822F47F42EB
:100E1800E16942EA01225A6098E7484A136823F0D8
:100E280001031360FFF76AFE0746444B1B6813F083
:100E3800020F8BD0FFF762FEC01B0228F5D90320F2
:100E480025E2032E8BD13D4B1B6813F4003F03D0E2
:100E58006368002B00F01682236813F0020F4FD04E
:100E6800042D3CD00C2D38D0E368002B77D0334AC2
:100E7800136843F480731360FFF740FE06462F4B58
:100E88001B6813F4806F61D1FFF738FE801B0228BE
:100E9800F5D90320FBE1294A136843F48033136032
:100EA8006FE703F18043A3F53C331A6842F48022CC
:100EB8001A601A6842F480321A6062E7FFF71EFE71
:100EC80007461E4B1B6813F4003FC5D0FFF716FEFC
:100ED800C01B6428F5D90320D9E1022EC4D1174BD1
:100EE8001B6813F4806F03D0E368002B00F0CC81FB
:100EF800124A536823F0F853216943EA01635360A7
:100F0800236813F0080F55D06369002B3BD00B4AB8
:100F1800D2F8943043F00103C2F89430FFF7EEFDA5
:100F28000646064BD3F8943013F0020F42D1FFF770
:100F3800E5FD801B0228F4D90320A8E10010024037
:100F4800802200080800002004000020B84A5368E6
:100F580023F0F853216943EA01635360D0E7B44AA8
:100F6800136823F480731360FFF7C8FD0646B04B7F
:100F78001B6813F4806FC3D0FFF7C0FD801B0228E5
:100F8800F5D9032083E1AA4AD2F8943023F001036B
:100F9800C2F89430FFF7B2FD0646A54BD3F894305B
:100FA80013F0020F06D0FFF7A9FD801B0228F4D921
:100FB80003206CE1236813F0040F7AD09C4B9B6DDF
:100FC80013F0805F36D19A4B9A6D42F080529A6541
:100FD8009B6D03F080530193019B0126954B1B6881
:100FE80013F4807F28D0A368012B39D0052B3FD07C
:100FF8008F4BD3F8902022F00102C3F89020D3F849
:10100800902022F00402C3F89020A368002B3DD062
:10101800FFF774FD0746864BD3F8903013F0020FA4
:1010280046D1FFF76BFDC01B41F288339842F2D9D5
:1010380003202CE10026D1E77E4A136843F480732D
:101048001360FFF75BFD07467A4B1B6813F4807F3C
:10105800C9D1FFF753FDC01B0228F5D9032016E1BB
:10106800734AD2F8903043F00103C2F89030CCE7CD
:101078006F4BD3F8902042F00402C3F89020D3F8C5
:10108800902042F00102C3F89020BEE7FFF736FD3A
:101098000746674BD3F8903013F0020F08D0FFF7DC
:1010A8002DFDC01B41F288339842F2D90320EEE0AF
:1010B8006EBBA36A002B00F0E980022B2DD00C2D0B
:1010C80000F0EB805A4B1A6822F080721A601B6895
:1010D80013F0205F04D1564AD36823F00303D3608A
:1010E800534AD36823F0887323F48033D360FFF71F
:1010F80005FD04464E4B1B6813F0007F00F0BA80D4
:10110800FFF7FCFC001B0228F4D90320BFE0484A83
:10111800936D23F080539365CBE7454BDB6803F071
:101128000301E26A91420FD00C2D00F0B280404BCF
:101138001B6813F0806F40F0AE803D4B1B6813F0C6
:10114800805F2DD00120A2E003F07002216B0139ED
:10115800B2EB011FE8D103F4FE42616BB2EB012F41
:10116800E2D103F40031A26B073A18BF0122914281
:10117800DAD103F4C001E26B5208013AB1EB425FE5
:10118800D2D103F0C063226C5208013AB3EB426F2C
:10119800CAD1274B1B6813F0007F51D0002076E09E
:1011A800234A136823F080731360FFF7A7FC0546F2
:1011B8001F4B1B6813F0007F06D0FFF79FFC401BF6
:1011C8000228F5D9032062E0194AD3681A49194060
:1011D800E36A206B013843EA0013606B43EA00239B
:1011E800E06B4008013843EA4053206C400801385E
:1011F80043EA4063A06B000943EA40430B43D360D2
:10120800136843F080731360D36843F08073D3602E
:10121800FFF774FC0446064B1B6813F0007F0DD1E2
:10122800FFF76CFC001B0228F5D903202FE000BF54
:1012380000100240007000408C809DF9002026E0DC
:10124800174B1A6842F080721A60DA6842F08072AE
:10125800DA60FFF753FC0446114B1B6813F0007F5C
:1012680006D1FFF74BFC031B022BF5D903200EE038
:1012780000200CE000200AE001207047012006E071
:10128800012004E0012002E0012000E0002003B07A
:10129800F0BD0120FBE70120F9E70120F7E700BFD7
:1012A80000100240002800F0988070B50C460546F2
:1012B8004E4B1B6803F007038B420BD24B4A136853
:1012C80023F007030B431360136803F007038B42F3
:1012D80040F085802B6813F0010F39D06B68032B21
:1012E80009D0022B26D063BB414A126812F0020FC4
:1012F80006D1012070E03E4A126812F0007F70D0DB
:101308003B498A6822F0030213438B60FFF7F6FB20
:101318000646374B9B6803F00C036A68B3EB820FF1
:1013280016D0FFF7EBFB801B41F288339842F0D9C7
:10133800032051E02E4A126812F4003FE0D1012048
:101348004AE02B4A126812F4806FD9D1012043E099
:101358002B6813F0020F06D0254A936823F0F00398
:10136800A9680B439360214B1B6803F00703A34252
:101378000AD91E4A136823F007032343136013682E
:1013880003F00703A3422ED12B6813F0040F06D0F5
:10139800174A936823F4E063E9680B4393602B686A
:1013A80013F0080F07D0124A936823F46053296991
:1013B80043EAC1039360FFF703FC0D4B9B68C3F33B
:1013C80003130C4AD35C03F01F03D8400A4B186080
:1013D8000A4B1868FFF748FB70BD012070470120D1
:1013E800FAE70120F8E70120F6E700BF00200240F5
:1013F800001002408022000808000020040000209D
:10140800014B1868704700BF0800002008B5FFF7B7
:10141800F7FF054B9B68C3F30223044AD35C03F030
:101428001F03D84008BD00BF0010024090220008EA
:1014380008B5FFF7E5FF054B9B68C3F3C223044AD1
:10144800D35C03F01F03D84008BD00BF0010024062
:1014580090220008F8B504460F46594BDB6813F094
:10146800030F18D0564BDB6803F00303026893425E
:1014780002D001252846F8BD002A00F09E80504B76
:10148800DB68C3F3021301334268934201D001259C
:10149800F0E7002509E00368022B57D0032B5CD046
:1014A800012B42D00125002DE4D1454A136823F0D1
:1014B80080631360FFF722FB0646414B1B6813F05D
:1014C800006F05D0FFF71AFB831B022BF5D9032504
:1014D800002DCFD1002F4ED139490B6923F41F338A
:1014E80023F44073A068E2681209520442EA002219
:1014F80013430B61324A136843F080631360FFF7AC
:10150800FDFA06462E4B1B6813F0006F05D1FFF756
:10151800F5FA831B022BF5D90325002DAAD1284AF9
:101528001369A1690B431361A4E7254A126812F0F5
:10153800020F1ED02248C26822F073026168013986
:1015480043EA01131343C3600025ACE71C4A126841
:1015580012F4806FEED10125A5E7194A126812F43A
:10156800003FE7D1164A126812F4802FE2D1012514
:1015780099E7012597E7012F0FD01148026922F05A
:10158800C06222F4FE42A16863695B08013B5B0606
:1015980043EA012313430361ACE70948026922F4D3
:1015A800C00222F4FE42A16823695B08013B5B0587
:1015B80043EA0123134303619CE701255AE700BF6F
:1015C80000100240F8B504460F46504BDB6813F094
:1015D800030F18D04D4BDB6803F0030302689342F6
:1015E80002D001252846F8BD002A00F08C80474B20
:1015F800DB68C3F3021301334268934201D001252B
:10160800F0E7002509E00368022B57D0032B5CD0D4
:10161800012B42D00125002DE4D13C4A136823F068
:1016280080531360FFF76AFA0646384B1B6813F0BD
:10163800005F05D0FFF762FA831B022BF5D903255B
:10164800002DCFD1002F4ED130494B6923F41F33E1
:1016580023F44073A068E2681209520442EA0022A7
:1016680013434B61294A136843F080531360FFF713
:1016780045FA0646254B1B6813F0005F05D1FFF7B6
:101688003DFA831B022BF5D90325002DAAD11F4A49
:10169800536961690B435361A4E71C4A126812F04D
:1016A800020F1ED01948C26822F07302616801391E
:1016B80043EA01131343C3600025ACE7134A1268D9
:1016C80012F4806FEED10125A5E7104A126812F4D2
:1016D800003FE7D10D4A126812F4802FE2D10125AC
:1016E80099E7012597E70948426922F0C06222F488
:1016F800FE42A16823695B08013B5B0643EA0123BC
:1017080013434361AEE701256CE700BF00100240B8
:101718002DE9F04182B00446036813F4006F33D01A
:10172800436EB3F5000F1FD00CD823B3B3F5800F69
:1017380005D100212030FFF745FF064620E00127AC
:101748003E4623E0B3F5400F0BD10026624AD2F89B
:10175800883023F44003616E0B43C2F888300027B9
:1017680014E001273E4611E05B4AD36843F4803316
:10177800D3600026EAE700210430FFF76BFE064637
:10178800002EE3D0374601E000273E46236813F4D5
:10179800805F21D0A36EB3F1007F79D00ED8002BE3
:1017A8007CD0B3F1807F06D1002104F12000FFF73F
:1017B80009FF064605E001273E460DE0B3F1407FEC
:1017C80063D1002E70D1444AD2F8883023F0407398
:1017D800A16E0B43C2F88830236813F4003F00F071
:1017E80084803D4B9B6D13F0805F5FD13A4B9A6DBF
:1017F80042F080529A659B6D03F080530193019BE0
:101808004FF00108354A136843F480731360FFF7FB
:1018180075F90546314B1B6813F4807F05D1FFF736
:101828006DF9401B0228F5D90326002E58D12A4B02
:10183800D3F8903013F4407316D0D4F884209A4229
:1018480012D0254AD2F8903023F44073D2F8901081
:1018580041F48031C2F89010D2F8901021F4803110
:10186800C2F89010C2F8903013F0010F21D1002E69
:1018780040F03981184AD2F8903023F44073D4F8F4
:1018880084100B43C2F890302BE001273E46A3E7B3
:10189800114AD36843F48033D36092E70021201DB6
:1018A800FFF7D8FD06468CE7374695E74FF0000866
:1018B800A8E7FFF723F90546074BD3F8903013F054
:1018C800020FD4D1FFF71AF9401B41F2883398422E
:1018D800F2D90326CBE700BF001002400070004099
:1018E8003746B8F1000F40F00081236813F0010F6C
:1018F80008D09D4AD2F8883023F00303A16B0B432C
:10190800C2F88830236813F0020F08D0964AD2F83C
:10191800883023F00C03E16B0B43C2F8883023684E
:1019280013F0040F08D0904AD2F8883023F030031F
:10193800216C0B43C2F88830236813F0080F08D0D5
:10194800894AD2F8883023F0C003616C0B43C2F88F
:101958008830236813F0100F08D0834AD2F88830F3
:1019680023F44073A16C0B43C2F88830236813F04A
:10197800200F08D07C4AD2F8883023F44063E16C09
:101988000B43C2F88830236813F4007F08D0764AE6
:10199800D2F8883023F44023E16D0B43C2F8883035
:1019A800236813F4806F08D06F4AD2F8883023F484
:1019B8004013216E0B43C2F88830236813F0400FA0
:1019C80008D0694AD2F8883023F44053216D0B437C
:1019D800C2F88830236813F0800F08D0624AD2F822
:1019E800883023F44043616D0B43C2F88830236884
:1019F80013F4807F08D05C4AD2F8883023F440334F
:101A0800A16D0B43C2F88830236813F4005F0FD030
:101A1800554AD2F8883023F04063E16E0B43C2F890
:101A28008830E36EB3F1006F65D0B3F1806F67D093
:101A3800236813F4002F0FD04B4AD2F8883023F0D4
:101A48004063216F0B43C2F88830236FB3F1006FF6
:101A58005ED0B3F1806F60D0236813F4802F0FD06D
:101A6800414AD2F8883023F04063616F0B43C2F8D3
:101A78008830636FB3F1006F57D0B3F1806F59D0DE
:101A8800236813F4804F0FD0374AD2F8883023F0F8
:101A98004053A16F0B43C2F88830A36FB3F1805F46
:101AA80050D0B3F1005F55D0236813F4004F08D02D
:101AB8002D4AD2F8883023F08043E16F0B43C2F8F7
:101AC8008830236813F4803F09D0274AD2F8883039
:101AD80023F00043D4F880100B43C2F8883038460E
:101AE80002B0BDE8F0813746FBE61F4A936D23F04C
:101AF80080539365F9E6D36843F48013D36097E77E
:101B08000121201DFFF7A6FC002891D007468FE78A
:101B1800D36843F48013D3609EE70121201DFFF7AB
:101B280099FC002898D0074696E7D36843F48013B9
:101B3800D360A5E70121201DFFF78CFC00289FD06A
:101B480007469DE70221201DFFF784FC0028ABD043
:101B58000746A9E7022104F12000FFF733FD00281A
:101B6800A2D00746A0E700BF00100240F0B583B03E
:101B780000233FE0C66A26EA0406C5F3C0049C4079
:101B88003443C4625FE0062400E00024B4403C43D0
:101B98000235654E46F82540644C2568D44325EA4D
:101BA80002064F6817F4803F01D042EA05065F4DF0
:101BB8002E606D6804EA05064F6817F4003F01D0EF
:101BC80042EA0506594D6E60AD6804EA05064F689D
:101BD80017F4801F01D042EA0506544DAE60ED6847
:101BE8002C404E6816F4001F01D042EA05044F4A03
:101BF800D46001330A6832FA03F400F092800124B9
:101C08009C402240F5D04D686E1E012E03D9112D3F
:101C180001D0122D12D186685F000325BD4026EA47
:101C28000506CD68BD4035438560466826EA04064A
:101C38004D68C5F300159D40354345604D6805F076
:101C48000306032E96D0C7685E000325B540EC4313
:101C580027EA05078D68B5403D43C5604D68022DEC
:101C680001D0122D13D1DF08083750F827E003F010
:101C780007054FEA850C0F2505FA0CF52EEA050E27
:101C88000D6905FA0CF545EA0E0540F82750056878
:101C980025404C6804F00304B4402C4304604C68AD
:101CA80014F0805FA5D0224C256E45F0010525660D
:101CB800246E04F001040194019C9D08AE1C1A4C8A
:101CC80054F8267003F00304A6000F24B44027EA52
:101CD8000407B0F1904F3FF458AF164CA04216D00D
:101CE80004F58064A04214D004F58064A04212D0A8
:101CF80004F58064A04210D004F58064A0420ED0A0
:101D080004F58064A0423FF43EAF07243EE7012477
:101D18003CE702243AE7032438E7042436E705249D
:101D280034E703B0F0BD00BF0000014000040140EB
:101D380000100240000400480AB1816170478162C6
:101D4800704743690B4201D08162704781617047D7
:101D5800024B186800F4C060704700BF0070004074
:101D6800B0F5007F0FD01F4B1B6803F4C063B3F5B9
:101D7800806F34D01B4A136823F4C06343F4806334
:101D8800136000207047174B1B6803F4C063B3F55A
:101D9800007F20D0134A136823F4C06343F4007310
:101DA8001360114B1A68322303FB02F30F4AA2FB9C
:101DB80003239B0C013300E0013B0A4A526912F4E9
:101DC800806F01D0002BF7D1064B5B6913F4806F4D
:101DD80003D100207047002070470320704700207F
:101DE800704700BF007000400800002083DE1B43DE
:101DF800074AD36823F4E0631B041B0C000200F4B9
:101E0800E060034343F0BF6343F40033D36070479B
:101E180000ED00E030B4174BDB68C3F30223C3F1D5
:101E28000704042C28BF04241D1D062D18D9033BC4
:101E38004FF0FF3505FA04F421EA0401994005FA48
:101E480003F322EA0303194300280BDB0901C9B293
:101E580000F1604000F5614080F8001330BC704725
:101E68000023E5E700F00F000901C9B2024B19543D
:101E7800F4E700BF00ED00E014ED00E00138B0F138
:101E8800807F0AD2064B5860064AF02182F8231058
:101E98000020986007221A6070470120704700BF31
:101EA80010E000E000ED00E00F49D1F8883043F47D
:101EB8007003C1F888300D4B1A6842F001021A60AD
:101EC800002098601A6822F0A85222F410221A60A2
:101ED8004FF48052DA601A6822F480221A609861FE
:101EE8004FF000638B60704700ED00E00010024087
:101EF800DFF834D0002103E00C4B5B584350043129
:101F08000B480C4B42189A42F6D30B4A02E00023C6
:101F180042F8043B094B9A42F9D3FFF7C5FF00F09A
:101F280011F8FEF7A3F9FEE700800120E02200087F
:101F3800000000201000002010000020B000002049
:101F4800FEE7000070B50D4D0D4C641BA410002673
:101F5800A64209D10B4D0C4C00F082F9641BA41069
:101F68000026A64205D170BD55F8043B98470136B6
:101F7800EEE755F8043B98470136F2E7D02200080F
:101F8800D0220008D0220008D422000802440346C8
:101F9800934200D1704703F8011BF9E72DE9F04798
:101FA800089D04468C46002B40F083808A421746E1
:101FB80047D9B2FA82F242B1C2F1200024FA00F005
:101FC8009140974040EA010C94404FEA1748230C8F
:101FD800BCFBF8F61FFA87FE08FB16C143EA01436B
:101FE80006FB0EF1994209D9FB1806F1FF3080F083
:101FF8001981994240F21681023E3B445B1AA4B211
:10200800B3FBF8F008FB103344EA034400FB0EFE70
:10201800A64509D93C1900F1FF3380F00581A64592
:1020280040F2028102383C4440EA0640A4EB0E0428
:1020380000261DB1D4400023C5E900433146BDE860
:10204800F08702B9FFDEB2FA82F2002A50D1CB1B28
:102058004FEA174E1FFA87F80126B3FBFEFC210C46
:102068000EFB1C3341EA034108FB0CF38B4207D9F2
:1020780079180CF1FF3002D28B4200F2E9808446D5
:10208800C91AA3B2B1FBFEF00EFB101143EA0144DA
:1020980008FB00F8A04507D93C1900F1FF3302D22C
:1020A800A04500F2D9801846A4EB080440EA0C4089
:1020B800BFE78B4209D9002D00F0B1800026C5E9A1
:1020C800000130463146BDE8F087B3FA83F6002EAA
:1020D8004AD18B4202D3824200F2B880841A61EB63
:1020E800030101208C46002DA8D0C5E9004CA5E7C6
:1020F800C2F1200320FA03F6974001FA02F04FEAF2
:10210800174ED9403043030CB1FBFEF61FFA87F88F
:102118000EFB161143EA014306FB08F1994204FA43
:1021280002F409D9FB1806F1FF3C80F08D80994232
:1021380040F28A80023E3B445B1A81B2B3FBFEF058
:102148000EFB103341EA034100FB08F38B4207D929
:10215800791800F1FF3C73D28B4271D902383944A7
:10216800CB1A40EA064678E7C6F1200C03FA06F4D3
:1021780022FA0CF31C4320FA0CF701FA06F34FEA93
:10218800144E21FA0CF11F433B0CB1FBFEF91FFA68
:1021980084F80EFB191143EA014109FB08FA8A4544
:1021A80002FA06F200FA06F308D9611809F1FF30BD
:1021B80048D28A4546D9A9F102092144A1EB0A016E
:1021C800BFB2B1FBFEF00EFB101147EA014700FB5E
:1021D80008F8B84507D9E71900F1FF312ED2B845FC
:1021E8002CD90238274440EA0940A7EB0807A0FB8E
:1021F80002894F45C64649461AD317D05DB1B3EB9D
:102208000E0267EB010707FA0CFCF2404CEA0202E7
:10221800F740C5E9002700263146BDE8F0872E467D
:1022280028460BE70646E9E61846FDE64345E5D2AB
:10223800B8EB020E69EB04010138DFE70846D2E784
:1022480060468DE78146B9E7664675E730464AE756
:10225800ACF1020C394413E702383C4424E700BFD0
:10226800F8B500BFF8BC08BC9E467047F8B500BF7B
:08227800F8BC08BC9E4670474B
:102280000000000000000000010203040607080926
:102290000000000001020304A0860100400D0300BD
:1022A000801A060000350C0040420F0080841E009A
:1022B00000093D0000127A000024F40000366E018F
:0822C0000048E801006CDC029B
:0822C800DCFCFF7F01000000B7
:0822D000E1010008000000001C
:0822D800BD0100080000000038
:1022E000010000001000000000093D000000000097
:0400000508001EF9D8
:00000001FF
